{
  "_format": "hh-sol-artifact-1",
  "contractName": "HydrogenFuelSystem",
  "sourceName": "contracts/HydrogenFuelSystem.sol",
  "abi": [
    {
      "inputs": [
        {
          "internalType": "contract IERC20",
          "name": "_fuelToken",
          "type": "address"
        }
      ],
      "stateMutability": "nonpayable",
      "type": "constructor"
    },
    {
      "anonymous": false,
      "inputs": [
        {
          "indexed": true,
          "internalType": "address",
          "name": "by",
          "type": "address"
        },
        {
          "indexed": false,
          "internalType": "uint256",
          "name": "amount",
          "type": "uint256"
        }
      ],
      "name": "ElectricityMinted",
      "type": "event"
    },
    {
      "anonymous": false,
      "inputs": [
        {
          "indexed": true,
          "internalType": "address",
          "name": "user",
          "type": "address"
        },
        {
          "indexed": false,
          "internalType": "uint256",
          "name": "amount",
          "type": "uint256"
        }
      ],
      "name": "HydrogenBurned",
      "type": "event"
    },
    {
      "anonymous": false,
      "inputs": [
        {
          "indexed": true,
          "internalType": "address",
          "name": "by",
          "type": "address"
        },
        {
          "indexed": false,
          "internalType": "uint256",
          "name": "amount",
          "type": "uint256"
        }
      ],
      "name": "HydrogenProduced",
      "type": "event"
    },
    {
      "anonymous": false,
      "inputs": [
        {
          "indexed": true,
          "internalType": "address",
          "name": "seller",
          "type": "address"
        },
        {
          "indexed": false,
          "internalType": "address",
          "name": "buyer",
          "type": "address"
        },
        {
          "indexed": false,
          "internalType": "uint256",
          "name": "amount",
          "type": "uint256"
        },
        {
          "indexed": false,
          "internalType": "uint256",
          "name": "price",
          "type": "uint256"
        }
      ],
      "name": "HydrogenSold",
      "type": "event"
    },
    {
      "anonymous": false,
      "inputs": [
        {
          "indexed": true,
          "internalType": "address",
          "name": "by",
          "type": "address"
        },
        {
          "indexed": false,
          "internalType": "uint256",
          "name": "amount",
          "type": "uint256"
        }
      ],
      "name": "WaterMinted",
      "type": "event"
    },
    {
      "inputs": [],
      "name": "admin",
      "outputs": [
        {
          "internalType": "address",
          "name": "",
          "type": "address"
        }
      ],
      "stateMutability": "view",
      "type": "function"
    },
    {
      "inputs": [
        {
          "internalType": "uint256",
          "name": "kg",
          "type": "uint256"
        }
      ],
      "name": "burnHydrogen",
      "outputs": [],
      "stateMutability": "nonpayable",
      "type": "function"
    },
    {
      "inputs": [
        {
          "internalType": "address",
          "name": "",
          "type": "address"
        }
      ],
      "name": "electricityBalance",
      "outputs": [
        {
          "internalType": "uint256",
          "name": "",
          "type": "uint256"
        }
      ],
      "stateMutability": "view",
      "type": "function"
    },
    {
      "inputs": [],
      "name": "fuelToken",
      "outputs": [
        {
          "internalType": "contract IERC20",
          "name": "",
          "type": "address"
        }
      ],
      "stateMutability": "view",
      "type": "function"
    },
    {
      "inputs": [
        {
          "internalType": "address",
          "name": "user",
          "type": "address"
        }
      ],
      "name": "getBalances",
      "outputs": [
        {
          "internalType": "uint256",
          "name": "water",
          "type": "uint256"
        },
        {
          "internalType": "uint256",
          "name": "electricity",
          "type": "uint256"
        },
        {
          "internalType": "uint256",
          "name": "hydrogen",
          "type": "uint256"
        },
        {
          "internalType": "uint256",
          "name": "fuelTokens",
          "type": "uint256"
        }
      ],
      "stateMutability": "view",
      "type": "function"
    },
    {
      "inputs": [
        {
          "internalType": "address",
          "name": "",
          "type": "address"
        }
      ],
      "name": "hydrogenBalance",
      "outputs": [
        {
          "internalType": "uint256",
          "name": "",
          "type": "uint256"
        }
      ],
      "stateMutability": "view",
      "type": "function"
    },
    {
      "inputs": [],
      "name": "hydrogenProductionReward",
      "outputs": [
        {
          "internalType": "uint256",
          "name": "",
          "type": "uint256"
        }
      ],
      "stateMutability": "view",
      "type": "function"
    },
    {
      "inputs": [],
      "name": "hydrogenSalePrice",
      "outputs": [
        {
          "internalType": "uint256",
          "name": "",
          "type": "uint256"
        }
      ],
      "stateMutability": "view",
      "type": "function"
    },
    {
      "inputs": [
        {
          "internalType": "uint256",
          "name": "amount",
          "type": "uint256"
        }
      ],
      "name": "mintElectricity",
      "outputs": [],
      "stateMutability": "nonpayable",
      "type": "function"
    },
    {
      "inputs": [
        {
          "internalType": "uint256",
          "name": "amount",
          "type": "uint256"
        }
      ],
      "name": "mintWater",
      "outputs": [],
      "stateMutability": "nonpayable",
      "type": "function"
    },
    {
      "inputs": [
        {
          "internalType": "uint256",
          "name": "kg",
          "type": "uint256"
        }
      ],
      "name": "produceHydrogen",
      "outputs": [],
      "stateMutability": "nonpayable",
      "type": "function"
    },
    {
      "inputs": [
        {
          "internalType": "address",
          "name": "buyer",
          "type": "address"
        },
        {
          "internalType": "uint256",
          "name": "kg",
          "type": "uint256"
        }
      ],
      "name": "sellHydrogen",
      "outputs": [],
      "stateMutability": "nonpayable",
      "type": "function"
    },
    {
      "inputs": [
        {
          "internalType": "address",
          "name": "",
          "type": "address"
        }
      ],
      "name": "waterBalance",
      "outputs": [
        {
          "internalType": "uint256",
          "name": "",
          "type": "uint256"
        }
      ],
      "stateMutability": "view",
      "type": "function"
    }
  ],
  "bytecode": "0x6080604052674563918244f40000600555678ac7230489e800006006553480156200002957600080fd5b506040516200164e3803806200164e83398181016040528101906200004f919062000155565b336000806101000a81548173ffffffffffffffffffffffffffffffffffffffff021916908373ffffffffffffffffffffffffffffffffffffffff16021790555080600160006101000a81548173ffffffffffffffffffffffffffffffffffffffff021916908373ffffffffffffffffffffffffffffffffffffffff1602179055505062000187565b600080fd5b600073ffffffffffffffffffffffffffffffffffffffff82169050919050565b60006200010982620000dc565b9050919050565b60006200011d82620000fc565b9050919050565b6200012f8162000110565b81146200013b57600080fd5b50565b6000815190506200014f8162000124565b92915050565b6000602082840312156200016e576200016d620000d7565b5b60006200017e848285016200013e565b91505092915050565b6114b780620001976000396000f3fe608060405234801561001057600080fd5b50600436106100cf5760003560e01c8063a4090df31161008c578063cb509dc011610066578063cb509dc014610225578063d88862ad14610243578063e4ae4ec014610261578063f851a4401461027d576100cf565b8063a4090df3146101ba578063c322e030146101d6578063c84aae17146101f2576100cf565b80630da4b7b3146100d4578063437c0bef146100f25780635ca7dba0146101225780636ddc87c61461013e57806373a9864b1461016e57806393efcb2b1461019e575b600080fd5b6100dc61029b565b6040516100e99190610da4565b60405180910390f35b61010c60048036038101906101079190610e22565b6102a1565b6040516101199190610da4565b60405180910390f35b61013c60048036038101906101379190610e7b565b6102b9565b005b61015860048036038101906101539190610e22565b6103e2565b6040516101659190610da4565b60405180910390f35b61018860048036038101906101839190610e22565b6103fa565b6040516101959190610da4565b60405180910390f35b6101b860048036038101906101b39190610e7b565b610412565b005b6101d460048036038101906101cf9190610e7b565b61077e565b005b6101f060048036038101906101eb9190610ea8565b610868565b005b61020c60048036038101906102079190610e22565b610ae0565b60405161021c9493929190610ee8565b60405180910390f35b61022d610c51565b60405161023a9190610da4565b60405180910390f35b61024b610c57565b6040516102589190610f8c565b60405180910390f35b61027b60048036038101906102769190610e7b565b610c7d565b005b610285610d67565b6040516102929190610fb6565b60405180910390f35b60055481565b60046020528060005260406000206000915090505481565b80600460003373ffffffffffffffffffffffffffffffffffffffff1673ffffffffffffffffffffffffffffffffffffffff16815260200190815260200160002054101561033b576040517f08c379a00000000000000000000000000000000000000000000000000000000081526004016103329061102e565b60405180910390fd5b80600460003373ffffffffffffffffffffffffffffffffffffffff1673ffffffffffffffffffffffffffffffffffffffff168152602001908152602001600020600082825461038a919061107d565b925050819055503373ffffffffffffffffffffffffffffffffffffffff167f96f3ba9032a5a3eb78cab36497602a6cc2b185de14868785025a0473766d6f6c826040516103d79190610da4565b60405180910390a250565b60026020528060005260406000206000915090505481565b60036020528060005260406000206000915090505481565b60008111610455576040517f08c379a000000000000000000000000000000000000000000000000000000000815260040161044c906110fd565b60405180910390fd5b6000600b82610464919061111d565b90506000603783610475919061111d565b905081600260003373ffffffffffffffffffffffffffffffffffffffff1673ffffffffffffffffffffffffffffffffffffffff1681526020019081526020016000205410156104f9576040517f08c379a00000000000000000000000000000000000000000000000000000000081526004016104f0906111ab565b60405180910390fd5b80600360003373ffffffffffffffffffffffffffffffffffffffff1673ffffffffffffffffffffffffffffffffffffffff16815260200190815260200160002054101561057b576040517f08c379a000000000000000000000000000000000000000000000000000000000815260040161057290611217565b60405180910390fd5b81600260003373ffffffffffffffffffffffffffffffffffffffff1673ffffffffffffffffffffffffffffffffffffffff16815260200190815260200160002060008282546105ca919061107d565b9250508190555080600360003373ffffffffffffffffffffffffffffffffffffffff1673ffffffffffffffffffffffffffffffffffffffff1681526020019081526020016000206000828254610620919061107d565b9250508190555082600460003373ffffffffffffffffffffffffffffffffffffffff1673ffffffffffffffffffffffffffffffffffffffff16815260200190815260200160002060008282546106769190611237565b92505081905550600160009054906101000a900473ffffffffffffffffffffffffffffffffffffffff1673ffffffffffffffffffffffffffffffffffffffff1663a9059cbb33856005546106ca919061111d565b6040518363ffffffff1660e01b81526004016106e792919061126b565b6020604051808303816000875af1158015610706573d6000803e3d6000fd5b505050506040513d601f19601f8201168201806040525081019061072a91906112cc565b503373ffffffffffffffffffffffffffffffffffffffff167f852a97484bad3292ad854e4fe0d46aed225d464d1e6ed9b4167f5dcc11070e6a846040516107719190610da4565b60405180910390a2505050565b600081116107c1576040517f08c379a00000000000000000000000000000000000000000000000000000000081526004016107b8906110fd565b60405180910390fd5b80600360003373ffffffffffffffffffffffffffffffffffffffff1673ffffffffffffffffffffffffffffffffffffffff16815260200190815260200160002060008282546108109190611237565b925050819055503373ffffffffffffffffffffffffffffffffffffffff167f0c113e095a284d77eeea4f9cea7d32b8492a63cad9bab907e5051c174e8c8fdd8260405161085d9190610da4565b60405180910390a250565b80600460003373ffffffffffffffffffffffffffffffffffffffff1673ffffffffffffffffffffffffffffffffffffffff1681526020019081526020016000205410156108ea576040517f08c379a00000000000000000000000000000000000000000000000000000000081526004016108e190611345565b60405180910390fd5b6000816006546108fa919061111d565b9050600160009054906101000a900473ffffffffffffffffffffffffffffffffffffffff1673ffffffffffffffffffffffffffffffffffffffff166323b872dd8433846040518463ffffffff1660e01b815260040161095b93929190611365565b6020604051808303816000875af115801561097a573d6000803e3d6000fd5b505050506040513d601f19601f8201168201806040525081019061099e91906112cc565b6109dd576040517f08c379a00000000000000000000000000000000000000000000000000000000081526004016109d4906113e8565b60405180910390fd5b81600460003373ffffffffffffffffffffffffffffffffffffffff1673ffffffffffffffffffffffffffffffffffffffff1681526020019081526020016000206000828254610a2c919061107d565b9250508190555081600460008573ffffffffffffffffffffffffffffffffffffffff1673ffffffffffffffffffffffffffffffffffffffff1681526020019081526020016000206000828254610a829190611237565b925050819055503373ffffffffffffffffffffffffffffffffffffffff167f346a35b6ea8e44d2f9e55d07e5284c33f6885485823adb600c674a22d7ff4d8d848484604051610ad393929190611408565b60405180910390a2505050565b600080600080600260008673ffffffffffffffffffffffffffffffffffffffff1673ffffffffffffffffffffffffffffffffffffffff16815260200190815260200160002054600360008773ffffffffffffffffffffffffffffffffffffffff1673ffffffffffffffffffffffffffffffffffffffff16815260200190815260200160002054600460008873ffffffffffffffffffffffffffffffffffffffff1673ffffffffffffffffffffffffffffffffffffffff16815260200190815260200160002054600160009054906101000a900473ffffffffffffffffffffffffffffffffffffffff1673ffffffffffffffffffffffffffffffffffffffff166370a08231896040518263ffffffff1660e01b8152600401610c019190610fb6565b602060405180830381865afa158015610c1e573d6000803e3d6000fd5b505050506040513d601f19601f82011682018060405250810190610c429190611454565b93509350935093509193509193565b60065481565b600160009054906101000a900473ffffffffffffffffffffffffffffffffffffffff1681565b60008111610cc0576040517f08c379a0000000000000000000000000000000000000000000000000000000008152600401610cb7906110fd565b60405180910390fd5b80600260003373ffffffffffffffffffffffffffffffffffffffff1673ffffffffffffffffffffffffffffffffffffffff1681526020019081526020016000206000828254610d0f9190611237565b925050819055503373ffffffffffffffffffffffffffffffffffffffff167f7b9961e6cecc8e28985e7b8c015501f63c7843987f918ea4102b83a2cb2c3ada82604051610d5c9190610da4565b60405180910390a250565b60008054906101000a900473ffffffffffffffffffffffffffffffffffffffff1681565b6000819050919050565b610d9e81610d8b565b82525050565b6000602082019050610db96000830184610d95565b92915050565b600080fd5b600073ffffffffffffffffffffffffffffffffffffffff82169050919050565b6000610def82610dc4565b9050919050565b610dff81610de4565b8114610e0a57600080fd5b50565b600081359050610e1c81610df6565b92915050565b600060208284031215610e3857610e37610dbf565b5b6000610e4684828501610e0d565b91505092915050565b610e5881610d8b565b8114610e6357600080fd5b50565b600081359050610e7581610e4f565b92915050565b600060208284031215610e9157610e90610dbf565b5b6000610e9f84828501610e66565b91505092915050565b60008060408385031215610ebf57610ebe610dbf565b5b6000610ecd85828601610e0d565b9250506020610ede85828601610e66565b9150509250929050565b6000608082019050610efd6000830187610d95565b610f0a6020830186610d95565b610f176040830185610d95565b610f246060830184610d95565b95945050505050565b6000819050919050565b6000610f52610f4d610f4884610dc4565b610f2d565b610dc4565b9050919050565b6000610f6482610f37565b9050919050565b6000610f7682610f59565b9050919050565b610f8681610f6b565b82525050565b6000602082019050610fa16000830184610f7d565b92915050565b610fb081610de4565b82525050565b6000602082019050610fcb6000830184610fa7565b92915050565b600082825260208201905092915050565b7f4e6f7420656e6f75676820687964726f67656e20746f206275726e0000000000600082015250565b6000611018601b83610fd1565b915061102382610fe2565b602082019050919050565b600060208201905081810360008301526110478161100b565b9050919050565b7f4e487b7100000000000000000000000000000000000000000000000000000000600052601160045260246000fd5b600061108882610d8b565b915061109383610d8b565b92508282039050818111156110ab576110aa61104e565b5b92915050565b7f416d6f756e74206d757374206265203e20300000000000000000000000000000600082015250565b60006110e7601283610fd1565b91506110f2826110b1565b602082019050919050565b60006020820190508181036000830152611116816110da565b9050919050565b600061112882610d8b565b915061113383610d8b565b925082820261114181610d8b565b915082820484148315176111585761115761104e565b5b5092915050565b7f4e6f7420656e6f75676820776174657200000000000000000000000000000000600082015250565b6000611195601083610fd1565b91506111a08261115f565b602082019050919050565b600060208201905081810360008301526111c481611188565b9050919050565b7f4e6f7420656e6f75676820656c65637472696369747900000000000000000000600082015250565b6000611201601683610fd1565b915061120c826111cb565b602082019050919050565b60006020820190508181036000830152611230816111f4565b9050919050565b600061124282610d8b565b915061124d83610d8b565b92508282019050808211156112655761126461104e565b5b92915050565b60006040820190506112806000830185610fa7565b61128d6020830184610d95565b9392505050565b60008115159050919050565b6112a981611294565b81146112b457600080fd5b50565b6000815190506112c6816112a0565b92915050565b6000602082840312156112e2576112e1610dbf565b5b60006112f0848285016112b7565b91505092915050565b7f4e6f7420656e6f75676820687964726f67656e00000000000000000000000000600082015250565b600061132f601383610fd1565b915061133a826112f9565b602082019050919050565b6000602082019050818103600083015261135e81611322565b9050919050565b600060608201905061137a6000830186610fa7565b6113876020830185610fa7565b6113946040830184610d95565b949350505050565b7f5061796d656e74206661696c6564000000000000000000000000000000000000600082015250565b60006113d2600e83610fd1565b91506113dd8261139c565b602082019050919050565b60006020820190508181036000830152611401816113c5565b9050919050565b600060608201905061141d6000830186610fa7565b61142a6020830185610d95565b6114376040830184610d95565b949350505050565b60008151905061144e81610e4f565b92915050565b60006020828403121561146a57611469610dbf565b5b60006114788482850161143f565b9150509291505056fea2646970667358221220f43e6dc706e3b744dc78e7ec2ba383e2ba311a3f66ffa49422b14634bced828c64736f6c63430008140033",
  "linkReferences": {},
  "deployedLinkReferences": {}
}