{
  "_format": "hh-sol-artifact-1",
  "contractName": "HydrogenFuelSystem",
  "sourceName": "contracts/HydrogenFuelSystem.sol",
  "abi": [
    {
      "inputs": [
        {
          "internalType": "contract IERC20",
          "name": "_fuelToken",
          "type": "address"
        }
      ],
      "stateMutability": "nonpayable",
      "type": "constructor"
    },
    {
      "anonymous": false,
      "inputs": [
        {
          "indexed": true,
          "internalType": "address",
          "name": "by",
          "type": "address"
        },
        {
          "indexed": false,
          "internalType": "uint256",
          "name": "amount",
          "type": "uint256"
        }
      ],
      "name": "ElectricityMinted",
      "type": "event"
    },
    {
      "anonymous": false,
      "inputs": [
        {
          "indexed": true,
          "internalType": "address",
          "name": "user",
          "type": "address"
        },
        {
          "indexed": false,
          "internalType": "uint256",
          "name": "amount",
          "type": "uint256"
        }
      ],
      "name": "HydrogenBurned",
      "type": "event"
    },
    {
      "anonymous": false,
      "inputs": [
        {
          "indexed": true,
          "internalType": "address",
          "name": "by",
          "type": "address"
        },
        {
          "indexed": false,
          "internalType": "uint256",
          "name": "amount",
          "type": "uint256"
        }
      ],
      "name": "HydrogenProduced",
      "type": "event"
    },
    {
      "anonymous": false,
      "inputs": [
        {
          "indexed": true,
          "internalType": "address",
          "name": "seller",
          "type": "address"
        },
        {
          "indexed": false,
          "internalType": "address",
          "name": "buyer",
          "type": "address"
        },
        {
          "indexed": false,
          "internalType": "uint256",
          "name": "amount",
          "type": "uint256"
        },
        {
          "indexed": false,
          "internalType": "uint256",
          "name": "price",
          "type": "uint256"
        }
      ],
      "name": "HydrogenSold",
      "type": "event"
    },
    {
      "anonymous": false,
      "inputs": [
        {
          "indexed": true,
          "internalType": "address",
          "name": "by",
          "type": "address"
        },
        {
          "indexed": false,
          "internalType": "uint256",
          "name": "amount",
          "type": "uint256"
        }
      ],
      "name": "WaterMinted",
      "type": "event"
    },
    {
      "inputs": [],
      "name": "admin",
      "outputs": [
        {
          "internalType": "address",
          "name": "",
          "type": "address"
        }
      ],
      "stateMutability": "view",
      "type": "function"
    },
    {
      "inputs": [
        {
          "internalType": "uint256",
          "name": "kg",
          "type": "uint256"
        }
      ],
      "name": "burnHydrogen",
      "outputs": [],
      "stateMutability": "nonpayable",
      "type": "function"
    },
    {
      "inputs": [
        {
          "internalType": "address",
          "name": "",
          "type": "address"
        }
      ],
      "name": "electricityBalance",
      "outputs": [
        {
          "internalType": "uint256",
          "name": "",
          "type": "uint256"
        }
      ],
      "stateMutability": "view",
      "type": "function"
    },
    {
      "inputs": [],
      "name": "fuelToken",
      "outputs": [
        {
          "internalType": "contract IERC20",
          "name": "",
          "type": "address"
        }
      ],
      "stateMutability": "view",
      "type": "function"
    },
    {
      "inputs": [
        {
          "internalType": "address",
          "name": "user",
          "type": "address"
        }
      ],
      "name": "getBalances",
      "outputs": [
        {
          "internalType": "uint256",
          "name": "water",
          "type": "uint256"
        },
        {
          "internalType": "uint256",
          "name": "electricity",
          "type": "uint256"
        },
        {
          "internalType": "uint256",
          "name": "hydrogen",
          "type": "uint256"
        },
        {
          "internalType": "uint256",
          "name": "fuelTokens",
          "type": "uint256"
        }
      ],
      "stateMutability": "view",
      "type": "function"
    },
    {
      "inputs": [
        {
          "internalType": "address",
          "name": "",
          "type": "address"
        }
      ],
      "name": "hydrogenBalance",
      "outputs": [
        {
          "internalType": "uint256",
          "name": "",
          "type": "uint256"
        }
      ],
      "stateMutability": "view",
      "type": "function"
    },
    {
      "inputs": [],
      "name": "hydrogenProductionReward",
      "outputs": [
        {
          "internalType": "uint256",
          "name": "",
          "type": "uint256"
        }
      ],
      "stateMutability": "view",
      "type": "function"
    },
    {
      "inputs": [],
      "name": "hydrogenSalePrice",
      "outputs": [
        {
          "internalType": "uint256",
          "name": "",
          "type": "uint256"
        }
      ],
      "stateMutability": "view",
      "type": "function"
    },
    {
      "inputs": [
        {
          "internalType": "uint256",
          "name": "amount",
          "type": "uint256"
        }
      ],
      "name": "mintElectricity",
      "outputs": [],
      "stateMutability": "nonpayable",
      "type": "function"
    },
    {
      "inputs": [
        {
          "internalType": "uint256",
          "name": "amount",
          "type": "uint256"
        }
      ],
      "name": "mintWater",
      "outputs": [],
      "stateMutability": "nonpayable",
      "type": "function"
    },
    {
      "inputs": [
        {
          "internalType": "uint256",
          "name": "kg",
          "type": "uint256"
        }
      ],
      "name": "produceHydrogen",
      "outputs": [],
      "stateMutability": "nonpayable",
      "type": "function"
    },
    {
      "inputs": [
        {
          "internalType": "address",
          "name": "buyer",
          "type": "address"
        },
        {
          "internalType": "uint256",
          "name": "kg",
          "type": "uint256"
        }
      ],
      "name": "sellHydrogen",
      "outputs": [],
      "stateMutability": "nonpayable",
      "type": "function"
    },
    {
      "inputs": [
        {
          "internalType": "address",
          "name": "",
          "type": "address"
        }
      ],
      "name": "waterBalance",
      "outputs": [
        {
          "internalType": "uint256",
          "name": "",
          "type": "uint256"
        }
      ],
      "stateMutability": "view",
      "type": "function"
    }
  ],
  "bytecode": "0x6080604052674563918244f40000600555678ac7230489e800006006553480156200002957600080fd5b50604051620016bb380380620016bb83398181016040528101906200004f919062000155565b336000806101000a81548173ffffffffffffffffffffffffffffffffffffffff021916908373ffffffffffffffffffffffffffffffffffffffff16021790555080600160006101000a81548173ffffffffffffffffffffffffffffffffffffffff021916908373ffffffffffffffffffffffffffffffffffffffff1602179055505062000187565b600080fd5b600073ffffffffffffffffffffffffffffffffffffffff82169050919050565b60006200010982620000dc565b9050919050565b60006200011d82620000fc565b9050919050565b6200012f8162000110565b81146200013b57600080fd5b50565b6000815190506200014f8162000124565b92915050565b6000602082840312156200016e576200016d620000d7565b5b60006200017e848285016200013e565b91505092915050565b61152480620001976000396000f3fe608060405234801561001057600080fd5b50600436106100cf5760003560e01c8063a4090df31161008c578063cb509dc011610066578063cb509dc014610225578063d88862ad14610243578063e4ae4ec014610261578063f851a4401461027d576100cf565b8063a4090df3146101ba578063c322e030146101d6578063c84aae17146101f2576100cf565b80630da4b7b3146100d4578063437c0bef146100f25780635ca7dba0146101225780636ddc87c61461013e57806373a9864b1461016e57806393efcb2b1461019e575b600080fd5b6100dc61029b565b6040516100e99190610da5565b60405180910390f35b61010c60048036038101906101079190610e23565b6102a1565b6040516101199190610da5565b60405180910390f35b61013c60048036038101906101379190610e7c565b6102b9565b005b61015860048036038101906101539190610e23565b6103e2565b6040516101659190610da5565b60405180910390f35b61018860048036038101906101839190610e23565b6103fa565b6040516101959190610da5565b60405180910390f35b6101b860048036038101906101b39190610e7c565b610412565b005b6101d460048036038101906101cf9190610e7c565b61077f565b005b6101f060048036038101906101eb9190610ea9565b610869565b005b61020c60048036038101906102079190610e23565b610ae1565b60405161021c9493929190610ee9565b60405180910390f35b61022d610c52565b60405161023a9190610da5565b60405180910390f35b61024b610c58565b6040516102589190610f8d565b60405180910390f35b61027b60048036038101906102769190610e7c565b610c7e565b005b610285610d68565b6040516102929190610fb7565b60405180910390f35b60055481565b60046020528060005260406000206000915090505481565b80600460003373ffffffffffffffffffffffffffffffffffffffff1673ffffffffffffffffffffffffffffffffffffffff16815260200190815260200160002054101561033b576040517f08c379a00000000000000000000000000000000000000000000000000000000081526004016103329061102f565b60405180910390fd5b80600460003373ffffffffffffffffffffffffffffffffffffffff1673ffffffffffffffffffffffffffffffffffffffff168152602001908152602001600020600082825461038a919061107e565b925050819055503373ffffffffffffffffffffffffffffffffffffffff167f96f3ba9032a5a3eb78cab36497602a6cc2b185de14868785025a0473766d6f6c826040516103d79190610da5565b60405180910390a250565b60026020528060005260406000206000915090505481565b60036020528060005260406000206000915090505481565b6000600b8261042191906110b2565b9050600060378361043291906110b2565b905081600260003373ffffffffffffffffffffffffffffffffffffffff1673ffffffffffffffffffffffffffffffffffffffff1681526020019081526020016000205410156104b6576040517f08c379a00000000000000000000000000000000000000000000000000000000081526004016104ad90611140565b60405180910390fd5b80600360003373ffffffffffffffffffffffffffffffffffffffff1673ffffffffffffffffffffffffffffffffffffffff168152602001908152602001600020541015610538576040517f08c379a000000000000000000000000000000000000000000000000000000000815260040161052f906111ac565b60405180910390fd5b81600260003373ffffffffffffffffffffffffffffffffffffffff1673ffffffffffffffffffffffffffffffffffffffff1681526020019081526020016000206000828254610587919061107e565b9250508190555080600360003373ffffffffffffffffffffffffffffffffffffffff1673ffffffffffffffffffffffffffffffffffffffff16815260200190815260200160002060008282546105dd919061107e565b9250508190555082600460003373ffffffffffffffffffffffffffffffffffffffff1673ffffffffffffffffffffffffffffffffffffffff168152602001908152602001600020600082825461063391906111cc565b925050819055506000600160009054906101000a900473ffffffffffffffffffffffffffffffffffffffff1673ffffffffffffffffffffffffffffffffffffffff1663a9059cbb338660055461068991906110b2565b6040518363ffffffff1660e01b81526004016106a6929190611200565b6020604051808303816000875af11580156106c5573d6000803e3d6000fd5b505050506040513d601f19601f820116820180604052508101906106e99190611261565b90508061072b576040517f08c379a0000000000000000000000000000000000000000000000000000000008152600401610722906112da565b60405180910390fd5b3373ffffffffffffffffffffffffffffffffffffffff167f852a97484bad3292ad854e4fe0d46aed225d464d1e6ed9b4167f5dcc11070e6a856040516107719190610da5565b60405180910390a250505050565b600081116107c2576040517f08c379a00000000000000000000000000000000000000000000000000000000081526004016107b990611346565b60405180910390fd5b80600360003373ffffffffffffffffffffffffffffffffffffffff1673ffffffffffffffffffffffffffffffffffffffff168152602001908152602001600020600082825461081191906111cc565b925050819055503373ffffffffffffffffffffffffffffffffffffffff167f0c113e095a284d77eeea4f9cea7d32b8492a63cad9bab907e5051c174e8c8fdd8260405161085e9190610da5565b60405180910390a250565b80600460003373ffffffffffffffffffffffffffffffffffffffff1673ffffffffffffffffffffffffffffffffffffffff1681526020019081526020016000205410156108eb576040517f08c379a00000000000000000000000000000000000000000000000000000000081526004016108e2906113b2565b60405180910390fd5b6000816006546108fb91906110b2565b9050600160009054906101000a900473ffffffffffffffffffffffffffffffffffffffff1673ffffffffffffffffffffffffffffffffffffffff166323b872dd8433846040518463ffffffff1660e01b815260040161095c939291906113d2565b6020604051808303816000875af115801561097b573d6000803e3d6000fd5b505050506040513d601f19601f8201168201806040525081019061099f9190611261565b6109de576040517f08c379a00000000000000000000000000000000000000000000000000000000081526004016109d590611455565b60405180910390fd5b81600460003373ffffffffffffffffffffffffffffffffffffffff1673ffffffffffffffffffffffffffffffffffffffff1681526020019081526020016000206000828254610a2d919061107e565b9250508190555081600460008573ffffffffffffffffffffffffffffffffffffffff1673ffffffffffffffffffffffffffffffffffffffff1681526020019081526020016000206000828254610a8391906111cc565b925050819055503373ffffffffffffffffffffffffffffffffffffffff167f346a35b6ea8e44d2f9e55d07e5284c33f6885485823adb600c674a22d7ff4d8d848484604051610ad493929190611475565b60405180910390a2505050565b600080600080600260008673ffffffffffffffffffffffffffffffffffffffff1673ffffffffffffffffffffffffffffffffffffffff16815260200190815260200160002054600360008773ffffffffffffffffffffffffffffffffffffffff1673ffffffffffffffffffffffffffffffffffffffff16815260200190815260200160002054600460008873ffffffffffffffffffffffffffffffffffffffff1673ffffffffffffffffffffffffffffffffffffffff16815260200190815260200160002054600160009054906101000a900473ffffffffffffffffffffffffffffffffffffffff1673ffffffffffffffffffffffffffffffffffffffff166370a08231896040518263ffffffff1660e01b8152600401610c029190610fb7565b602060405180830381865afa158015610c1f573d6000803e3d6000fd5b505050506040513d601f19601f82011682018060405250810190610c4391906114c1565b93509350935093509193509193565b60065481565b600160009054906101000a900473ffffffffffffffffffffffffffffffffffffffff1681565b60008111610cc1576040517f08c379a0000000000000000000000000000000000000000000000000000000008152600401610cb890611346565b60405180910390fd5b80600260003373ffffffffffffffffffffffffffffffffffffffff1673ffffffffffffffffffffffffffffffffffffffff1681526020019081526020016000206000828254610d1091906111cc565b925050819055503373ffffffffffffffffffffffffffffffffffffffff167f7b9961e6cecc8e28985e7b8c015501f63c7843987f918ea4102b83a2cb2c3ada82604051610d5d9190610da5565b60405180910390a250565b60008054906101000a900473ffffffffffffffffffffffffffffffffffffffff1681565b6000819050919050565b610d9f81610d8c565b82525050565b6000602082019050610dba6000830184610d96565b92915050565b600080fd5b600073ffffffffffffffffffffffffffffffffffffffff82169050919050565b6000610df082610dc5565b9050919050565b610e0081610de5565b8114610e0b57600080fd5b50565b600081359050610e1d81610df7565b92915050565b600060208284031215610e3957610e38610dc0565b5b6000610e4784828501610e0e565b91505092915050565b610e5981610d8c565b8114610e6457600080fd5b50565b600081359050610e7681610e50565b92915050565b600060208284031215610e9257610e91610dc0565b5b6000610ea084828501610e67565b91505092915050565b60008060408385031215610ec057610ebf610dc0565b5b6000610ece85828601610e0e565b9250506020610edf85828601610e67565b9150509250929050565b6000608082019050610efe6000830187610d96565b610f0b6020830186610d96565b610f186040830185610d96565b610f256060830184610d96565b95945050505050565b6000819050919050565b6000610f53610f4e610f4984610dc5565b610f2e565b610dc5565b9050919050565b6000610f6582610f38565b9050919050565b6000610f7782610f5a565b9050919050565b610f8781610f6c565b82525050565b6000602082019050610fa26000830184610f7e565b92915050565b610fb181610de5565b82525050565b6000602082019050610fcc6000830184610fa8565b92915050565b600082825260208201905092915050565b7f4e6f7420656e6f75676820687964726f67656e20746f206275726e0000000000600082015250565b6000611019601b83610fd2565b915061102482610fe3565b602082019050919050565b600060208201905081810360008301526110488161100c565b9050919050565b7f4e487b7100000000000000000000000000000000000000000000000000000000600052601160045260246000fd5b600061108982610d8c565b915061109483610d8c565b92508282039050818111156110ac576110ab61104f565b5b92915050565b60006110bd82610d8c565b91506110c883610d8c565b92508282026110d681610d8c565b915082820484148315176110ed576110ec61104f565b5b5092915050565b7f4e6f7420656e6f75676820776174657200000000000000000000000000000000600082015250565b600061112a601083610fd2565b9150611135826110f4565b602082019050919050565b600060208201905081810360008301526111598161111d565b9050919050565b7f4e6f7420656e6f75676820656c65637472696369747900000000000000000000600082015250565b6000611196601683610fd2565b91506111a182611160565b602082019050919050565b600060208201905081810360008301526111c581611189565b9050919050565b60006111d782610d8c565b91506111e283610d8c565b92508282019050808211156111fa576111f961104f565b5b92915050565b60006040820190506112156000830185610fa8565b6112226020830184610d96565b9392505050565b60008115159050919050565b61123e81611229565b811461124957600080fd5b50565b60008151905061125b81611235565b92915050565b60006020828403121561127757611276610dc0565b5b60006112858482850161124c565b91505092915050565b7f4675656c546f6b656e20726577617264207472616e73666572206661696c6564600082015250565b60006112c4602083610fd2565b91506112cf8261128e565b602082019050919050565b600060208201905081810360008301526112f3816112b7565b9050919050565b7f416d6f756e74206d757374206265203e20300000000000000000000000000000600082015250565b6000611330601283610fd2565b915061133b826112fa565b602082019050919050565b6000602082019050818103600083015261135f81611323565b9050919050565b7f4e6f7420656e6f75676820687964726f67656e00000000000000000000000000600082015250565b600061139c601383610fd2565b91506113a782611366565b602082019050919050565b600060208201905081810360008301526113cb8161138f565b9050919050565b60006060820190506113e76000830186610fa8565b6113f46020830185610fa8565b6114016040830184610d96565b949350505050565b7f5061796d656e74206661696c6564000000000000000000000000000000000000600082015250565b600061143f600e83610fd2565b915061144a82611409565b602082019050919050565b6000602082019050818103600083015261146e81611432565b9050919050565b600060608201905061148a6000830186610fa8565b6114976020830185610d96565b6114a46040830184610d96565b949350505050565b6000815190506114bb81610e50565b92915050565b6000602082840312156114d7576114d6610dc0565b5b60006114e5848285016114ac565b9150509291505056fea2646970667358221220d4a4f8042517a3d75b36a614df75edeaa859fc5676f767ee307859c920964ffe64736f6c63430008140033",
  "linkReferences": {},
  "deployedLinkReferences": {}
}